:020000040800F2
:100000000008002021030008230300082303000840
:100010002303000823030008230300082303000828
:10002000230300082303000823030008F18E0008BF
:100030002303000823030008230300082303000808
:1000400023030008230300082303000823030008F8
:1000500023030008230300082303000823030008E8
:1000600023030008230300082303000823030008D8
:1000700023030008230300082303000823030008C8
:1000800023030008230300082303000823030008B8
:1000900023030008230300082303000823030008A8
:1000A0002303000823030008230300082303000898
:1000B0002303000823030008216F0008230300081E
:1000C0002303000823030008230300082303000878
:1000D0002303000823030008F16B00082303000832
:1000E0002303000823030008230300082303000858
:1000F000016F000823030008E16E000823030008D5
:100100002303000823030008A16F0008230300084D
:100110002303000823030008230300082303000827
:100120002303000823030008230300082303000817
:100130002303000823030008230300082303000807
:1001400023030008230300082303000823030008F7
:1001500023030008230300082303000823030008E7
:1001600023030008230300082303000823030008D7
:1001700023030008915C0008230300082303000800
:1001800023030008230300082303000823030008B7
:1001900023030008230300082303000823030008A7
:1001A0002303000823030008230300082303000897
:1001B0002303000823030008230300082303000887
:1001C0002303000823030008230300082303000877
:1001D0002303000823030008230300082303000867
:0401E00021D700081B
:1002000072B6394880F30888384880F3098838483E
:100210004EF60851CEF20001086040F20000CCF228
:1002200000004EF63471CEF200010860BFF34F8F2C
:10023000BFF36F8F40F20000C0F2F0004EF688511D
:10024000CEF200010860BFF34F8FBFF36F8F4FF006
:100250000000E1EE100A4EF63C71CEF2000108609B
:10026000062080F31488BFF36F8F03F039F906F08E
:100270007FFC4FF055301F491B4A91423CBF41F86B
:10028000040BFAE71C49194A91423CBF41F8040BA0
:10029000FAE71A491A4A1B4B9A423EBF51F8040B1F
:1002A00042F8040BF8E700201749184A91423CBF76
:1002B00041F8040BFAE703F0E3F803F009F9144CF2
:1002C000144DAC4203DA54F8041B8847F9E70CF0EC
:1002D00007FA114C114DAC4203DA54F8041B88475D
:1002E000F9E703F0EDB8000000080020001C002032
:1002F0000000000800000020000800205411010840
:10030000001C0020B4250020B8250020503E00200D
:10031000E0010008E4010008E4010008E40100082D
:100320006EE700F000F8FEE72DE9F04F2DED108AA2
:10033000C1F80CD0C3689D46BDEC108ABDE8F08FB3
:10034000002383F311882846A04700200BF0B0FB60
:100350000BF0BEF800DFFEE703685A004CBF43F025
:10036000004323F000431844704700BF61B32DE9F8
:10037000F84F01F1FF3A90460646D146002707EBB9
:10038000090404EBD4746410E50071190846FFF702
:10039000E3FFA245834605F10800304409D0FFF78A
:1003A000DBFFC34500F1FF3005D8404509D2671C8B
:1003B000E5E7C34505D9A74202D004F1FF39DEE7DE
:1003C00000210846BDE8F88F08467047012807D08D
:1003D000022807D0044B00280CBF184600207047A5
:1003E0000248704702487047D90A0008DD0A000831
:1003F000E10A000830B5244B83B004468D1E7BB360
:1004000001A92846AFF3008020B301992A46FFF7DF
:10041000ADFF0146F0B1FFF79FFF4B68A064012BD1
:1004200012D0002B01F1040020DBFFF795FF002321
:10043000E06423650368002B1CDBFFF78DFF0023BE
:100440002061184603B030BD002323610523184600
:1004500003B030BD002323610923184603B030BD2B
:100460000A490B48091AC9100191CFE70123E0643A
:100470002365DFE7C3F30360FFF7A8FF00282061CF
:1004800014BF00230923DCE7000000005411010819
:100490009C0F01080368DA0710B5044606D49B07D1
:1004A00000F1480009D500F059FC2368590709D527
:1004B0001A070ED5DB0613D510BD00F047FC2368E4
:1004C0005907F5D404F1D00000F050FC23681A0756
:1004D000F0D404F5A87000F051FC2368DB06EBD4DF
:1004E00004F5E870BDE8104000F08CBC03680BB167
:1004F000184470471846704709207047704700BF7E
:1005000070B504460D4608E02B6C63612A462369EA
:10051000214601209847082808D1296C2046FFF77A
:1005200069FF06460028EFD000F084FE0728FBD1C3
:100530003046296CFFF7E2FF281D00F0FBFB00BFEF
:100540002DE9F0470C1D064617460FCCADF5727D20
:1005500003AD0FC50FCC0FC50FCC0FC594E80F002E
:1005600002ACD6F80C80D6F8189085E80F0000236E
:100570003046216C2360FFF73DFF002F054614BF76
:100580000A2709277DB1A36B47F010018DE81002FF
:100590003246636401203346C04778BB28460DF5D8
:1005A000727DBDE8F087236C73614FF4F0722146D1
:1005B0007AA801F00DF933697AAA3146384698478E
:1005C000889B82468DE81002394663643246334682
:1005D0000120C04790B94FF4F0727AA9204601F08B
:1005E000F7F8BAF1080F06D1216C3046FFF702FF89
:1005F00009270546C6E7BAF1070F04D009200DF513
:10060000727DBDE8F0872846216CFFF777FF03A8CD
:1006100000F090FB406C7047F0B5CB6B0B640E1D87
:100620000F4604460FCEF9B001AD0FC50FCE0FC572
:100630000FCE0FC596E80F004FF0FF3685E80F008C
:10064000009606E023696A46214698470828054631
:1006500008D110992046FFF7CDFE0028F2D00920DE
:1006600079B0F0BD6846FFF715FF062DF7D1394682
:100670002046FFF745FF00BF30B4DD6BC1608261EB
:1006800019461D64002230BC5AE700BF70B5C66829
:1006900043690B6426B10122FFF752FF00F0CAFD47
:1006A00003690A4604460D4601460220984707287A
:1006B00007D0082803D129462046FFF721FF00F084
:1006C000B9FD3046296CFFF719FF281D00F032FBF9
:1006D000C2681AB1CA6B0A64002231E79CE700BF06
:1006E000704700BF836813B1014601201847704767
:1006F00000B5042907D8DFE801F00309060909005D
:100700000BB90F2A05D902205DF804FB01205DF822
:1007100004FB00EB820218465368019A13605DF8EF
:1007200004FB00BF10B584B0002303AC0A4600945C
:100730001946FFF7DDFF039804B010BD00B504298A
:1007400007D8DFE801F00309060909000BB90F2AF1
:1007500005D902205DF804FB01205DF804FB019936
:1007600000EB82020968516018465DF804FB00BF87
:1007700010B584B004AC002344F8042D0A4600945C
:100780001946FFF7DBFF04B010BD00BFF0B5D36B17
:100790001364151D07460E460FCDADF50F7D17AC42
:1007A0000FC40FCD0FC40FCD0FC495E80F004FF04D
:1007B000FF3584E80F00169510E016A8FFF7D8FF64
:1007C000314616A8B84716AA694678B9049B08208E
:1007D0009847052804460AD0092807D02699684674
:1007E000FFF708FE6A460C210028E6D0092416A867
:1007F000FFF750FE20460DF50F7DF0BD2DE9F04FBF
:100800000D46C96C8BB00C1D096807919146089480
:1008100000F0030B1E46002B64D10902032307914D
:100820008DF825608DF824302B6DBBF1020F08BFC9
:10083000AC6B13F0010343D100F00800C2B2039285
:1008400001932768002F3DD0022E47D02788B4F8A7
:1008500002800434AB6C28F0010A0F2148469A4408
:10086000FFF760FF824537D827F001039A445045CF
:100870002CBF002001204FEA480808F0020807F0CA
:10088000010748EA0708B8F1010F41D038D3B8F1A1
:10089000020F1DD1236823F000420292BBF1000F2A
:1008A00079D130B10399002900F08180002A00F04D
:1008B000A880002B79DB029B013304EB8304C0E7A3
:1008C00000230193022E40DDFFF716FE002842D0E0
:1008D00009200BB0BDE8F08F0020CCE7D4F80480ED
:1008E0000834B7E7022B9FDC0B0CDAB209048DF851
:1008F0002530022304EB820407918DF8243093E71E
:10090000BBF1000F02D0002840F0B080043498E71B
:10091000BBF1000F26D1B0B194E80C00991C4FEA4E
:10092000D272D5D005F158010133069100F09480C0
:10093000201DFFF7DBFD06AB014628460DF02AFB24
:10094000002840F0B88008347BE707A9484600F04B
:10095000F3FA0028BCD1019B002B5CD108200BB01E
:10096000BDE8F08F0D2148462F6AFFF7DBFE874276
:10097000E9D1AB6A9C42E6D12046FFF7EDFC0F219E
:1009800002464846FFF7F4FE48462A460021FFF794
:10099000EFFE07209DE70D2148462F6AFFF7C2FEB4
:1009A000874248D02368002B85DA043483E7029B12
:1009B0003BB305F15803271DCDF810B0DDF80C80CE
:1009C000DDF808A00596A3461C4602E0B245B046F5
:1009D00016D038460694FFF789FD06AB0146002283
:1009E00028460DF0D7FA08F1010604370028EDD0AB
:1009F000029B059E43455C46DDF810B0D2D100E075
:100A00005C4648460D21FFF78DFE069B2862AC62CE
:100A10006B6206205DE70F214846FFF783FE0E213B
:100A200002464846FFF7A4FE48462A4A0F21FFF730
:100A30009FFE07204DE7AB6A9C42B3D104220027FA
:100A4000A3180299A962EF622A636B632368BB4211
:100A50001FDB012301932EE748460D21FFF762FEBD
:100A60002862069B6B62AC62062032E72046FFF7E5
:100A700073FC04340646AC6328460DF0E3FA002804
:100A80003FF426AF484632460F21FFF771FE07209C
:100A90001FE70846013004EB8000FFF75DFC0F21E3
:100AA00002464846FFF764FE48462A463946FFF7A5
:100AB0005FFE07200DE707460D214846FFF732FE8F
:100AC000022F2862CDD12B46069A43F82C2F6B6259
:100AD000C9E700BF75E1000800238FE601238DE61A
:100AE00002238BE6F0B50446C5B004290DD8DFE833
:100AF00001F057030C310F00012B4FEA124695B25B
:100B000066D17219102A40F29F80022045B0F0BDD4
:100B1000002BFAD1102AF8D82368D80600F1C98032
:100B200022AE3046019200F077F9A06B019A0023C3
:100B3000012505FA03F1114203D0016846F823109C
:100B400004300133042BF4D1A063304600F05AF98D
:100B50000020DBE7032BD8D1150C97B2EB19102B33
:100B6000D3D823681E0700F1B88022AE30467F003C
:100B700000F026F906EBC5027B1EA56B57B1043ABF
:100B8000294651F8040B42F8040F013B581CF8D1D8
:100B900005EB87053046A56300F0F0F80020B5E7C7
:100BA000002BB2D1A56B97B2201D012606FA03F1E6
:100BB000394203F1010302D0296801600435102B8A
:100BC00000F10400F2D112F400503BD1A5639DE77F
:100BD000052B9AD17719202F97D80F2E65D92F463C
:100BE000002D48D12A460027002AA06B71DD00EBBA
:100BF000C202014644A800EBC6008C3851F8045BE1
:100C000040F8045F9142F9D1084697B1102E324660
:100C100044A938BF102201EBC202A2F5C4727900C8
:100C2000043A00EB810150F8045B42F8045F814212
:100C3000F9D1012B47D00F2EA16332D917B102A8E9
:100C400000F094F8002061E70F2E3FF65EAF00271A
:100C50002268D1070DD522F00101052B21600193F7
:100C6000204652D022F0030240F8482B00F072F8E0
:100C7000019B002F51D02268510736D4012B3ED062
:100C80000F2E06D822A8019300F06CF8019B002FCC
:100C9000A8D002A8019300F06DF8019BC6F11002E4
:100CA000A2E722A800F05AF8C8E7102FCFD9103FCA
:100CB000CEE723F01003236004F5E870019200F002
:100CC000ABF8019A2CE70431A16322A800F03EF8AA
:100CD000B8E7002F9AD10146ABE723F00803236061
:100CE00004F5A87000F06CF83FE7204622F00402FB
:100CF00040F8D02B019300F03DF8019BBEE722A8FD
:100D0000019300F027F8019BC8E741F0020140F889
:100D1000481B00F027F8019BABE7012B03D00F2EF7
:100D20003FF660AFAEE722A8019300F013F8019BF5
:100D300058E700BF00F1340191E838009C46A64610
:100D40004CF8045D90E8FF0FE54600BD90EC210BE8
:100D5000704700BF80EC210B704700BF90EC200B68
:100D6000704700BF80EC200B704700BFD0EC200B19
:100D7000704700BFC0EC200B704700BFF0EC0201D1
:100D8000F0EC0211F0EC0221F0EC0231F0EC024147
:100D9000F0EC0251F0EC0261F0EC0271F0EC028137
:100DA000F0EC0291F0EC02A1F0EC02B1F0EC02C127
:100DB000F0EC02D1F0EC02E1F0EC02F1704700BF80
:100DC000E0EC0201E0EC0211E0EC0221E0EC023187
:100DD000E0EC0241E0EC0251E0EC0261E0EC027177
:100DE000E0EC0281E0EC0291E0EC02A1E0EC02B167
:100DF000E0EC02C1E0EC02D1E0EC02E1E0EC02F157
:100E0000704700BFB0FC0181B0FC0191B0FC01A1B2
:100E1000B0FC01B1704700BFA0FC0181A0FC0191B2
:100E2000A0FC01A1A0FC01B1704700BFEC4600B5D9
:100E30002DE900502DE9FF1F4FF000032DE90C00B4
:100E400001A9FFF7E9FBDDF840E012B0704700BFF1
:100E5000EC4600B52DE900502DE9FF1F4FF00003CF
:100E60002DE90C0001A9FFF711FCDDF840E012B0FC
:100E7000704700BFEC4600B52DE900502DE9FF1F7B
:100E80004FF000032DE90C0001A9FFF721FCDDF86C
:100E900040E012B0704700BFEC4600B52DE90050AD
:100EA0002DE9FF1F4FF000032DE90C0001ABFFF708
:100EB000E3FBDDF840E012B0704700BFEC4600B540
:100EC0002DE900502DE9FF1F4FF000032DE90C0024
:100ED00001AAFFF75BFCDDF840E012B0704700BFED
:100EE000037A1BB9437A43B9B02070475A1E03688E
:100EF00002721A020260180E70474268013B10B479
:100F0000437213680321141D01721A0244600260C7
:100F10005DF8044B180E704700B585B003AA002396
:100F2000009219460C22FFF7E3FB039805B05DF829
:100F300004FB00BFF0E700BF2DE9F043064685B093
:100F40000D464FF000082846FFF7CAFFB0280446B8
:100F500000F0B48020F07F0313F0FF0320D000F0F6
:100F6000F003802B7AD0902B35D0A02B48D0B02B1B
:100F70005CD0C02B00F0898000F0F803D02B0BD19F
:100F800000F00702013242F400220523012130461D
:100F9000FFF7A8FD0028D6D0092005B0BDE8F083F2
:100FA0000DF10C0919468700CDF800900D2230464E
:100FB000FFF79EFBFFB2039BCDF80090043760065D
:100FC0004CBFDF1BFF18002319460D223046039744
:100FD000FFF7B4FBB7E700F00D030D2BDCD003AF38
:100FE000002300F00F02194600973046FFF780FB00
:100FF0000023009719460D223046FFF79FFBA2E71A
:10100000C2434FF47F6302F0070243FA02F2010782
:1010100002EA03024FF0000348BF42F4804219463F
:101020003046FFF75FFD0028B6D18CE7B1284AD0E3
:10103000B22853D0B32800F0818000F0FC03B42B19
:10104000AAD000F007020132012342F4002219461F
:101050003046FFF747FD00289ED174E72846FFF78A
:101060003FFF24022043B0F5004F95D00401002338
:10107000A2B219463046FFF735FD00288CD114F492
:10108000004F18BF4FF001085DE7C62862D0C7289F
:101090006CD000F0F803C02B7BD0C82800F0918002
:1010A000C9287FF479AF2846FFF71AFF020300F042
:1010B0000F0002F470220130024366E7B8F1000F1E
:1010C0006ED0002069E72846FFF70AFF0246002895
:1010D0003FF462AF10F0F003B9D05DE700230DF1EB
:1010E0000C090D221946CDF800903046FFF700FBA1
:1010F0002846FFF7F5FE02064FF002040CD5039BCD
:1011000000F07F00A040034428460393FFF7E8FE69
:10111000030604F10704F2D4039BCDF8009000F01D
:101120007F0000FA04F203F5017400231444194609
:101130000D2230460394FFF701FB04E72846FFF732
:10114000CFFE010300F00F0001F47021421C0123C7
:101150000A437CE72846FFF7C3FE010300F00F00B7
:1011600001F47021421C03230A4370E72846FFF76D
:10117000B7FE024600283FF40FAF10F0F0037FF4F3
:101180000BAF04213046FFF7ADFC00287FF404AF1D
:10119000D9E600F00F020132032342F4202256E781
:1011A00003AC43460E22414600943046FFF7A0FAB6
:1011B0000094304643460F224146FFF7BFFA4046AF
:1011C000EBE62846FFF78CFE00F0F00200F00F037C
:1011D0001032013343EA0232D7E600BF10B5C36CC8
:1011E00084B05A6803208DF80C00DC798DF80D402E
:1011F00012020833084601A901920293FFF79CFEF0
:1012000004B010BD08B5FFF795FE806C08BD00BFA7
:1012100008B5FFF78FFEC36CD87903EB8000083068
:1012200008BD00BF08B500F005F800BF08B5FFF71E
:10123000F9FF00BF08B5062000F044FC01200BF0C8
:1012400057FB00BF024B0146186800F00BB800BF07
:1012500010200020024B0146186800F02DBE00BF90
:10126000102000202DE9F04F01F10B05162D83B061
:10127000064640F29F8035F0070500F1BF80A94285
:1012800000F2BC8000F08CFBB5F5FC7FC0F09982C9
:101290006B0A00F0BA80042B00F28781A80900F1E4
:1012A000390E4FEA4E033830C64F07EB8303A3F1E4
:1012B00008015C68A14207D1ACE0002A80F2AC8052
:1012C000E468A14200F0A680636823F003035A1B80
:1012D0000F2AF2DDBB493C6901F1080E744500F0AC
:1012E000AF81636823F003035A1B0F2A00F3958133
:1012F000002AC1F814E0C1F810E080F29E80B3F536
:10130000007F80F06381DB0803F1010C01229B1058
:1013100002FA03F34A6851F83C80C4F8088001EBF4
:10132000CC091A43A9F10803E3604A6041F83C4044
:10133000C8F80C40831001249C40944200F28A803B
:10134000144206D120F003006400144200F10400AE
:10135000FAD007EBC009CC468046DCF80C108C456F
:1013600007D16FE1002A80F27D81C9688C4500F0C9
:1013700069814B6823F003035A1B0F2AF2DD0C46E8
:10138000D1F80CC054F8088F4B1945F001054D6099
:1013900042F00101C8F80CC03046CCF808807B61EF
:1013A0003B61C3F80CE0C3F808E059609A5000F0C4
:1013B000F9FA1FE0102921D800F0F2FA10250623CF
:1013C0000220804F07EB8303A3F108025C6894427C
:1013D00000F041816368E168A56823F003032344BA
:1013E00030465A68E96042F001028D605A6000F0B0
:1013F000D9FA0834204603B0BDE8F08F00240C234E
:101400002046336003B0BDE8F08F80234FF0400EDC
:101410003F2049E770465DE72344E1685A68A568C4
:1014200042F00102E96030468D605A6000F0BAFA7D
:101430000834204603B0BDE8F08F234430465A6894
:1014400042F001025A6000F0ADFA0834204603B0C1
:10145000BDE8F08FBC68636823F00308A84504D397
:10146000C5EB08030F2B00F39080DFF85C91D7F8F1
:101470000834D9F80020013304EB080A2A4400F0AC
:101480005C8102F580520F3222F47F6222F00F025B
:1014900011463046019207F05BFAB0F1FF3F8346F8
:1014A000019A00F05481824500F2F880D9F80410C6
:1014B000DA451144C9F8041000F04E81D7F8083419
:1014C000404801331BBFCAEB0B0A5144C0F808B4B3
:1014D000C9F804101BF0070100F01281C1F10803E4
:1014E000C1F580519B4408310BEB0203C3F30B039E
:1014F000C3EB010A5146304607F02AFA431C00F0BC
:101500003C81CBEB0003534443F00103D9F80410B2
:10151000C7F808B05144BC42CBF80430C9F80410F5
:10152000DFF8A4A016D0B8F10F0F40F2F780626880
:10153000A8F10C0323F00703E01802F001024FF0BA
:10154000050E1A430F2B6260C0F804E0C0F808E0F3
:1015500000F21781D9F82C301B4ABC689942D9F89F
:10156000303088BFD162184A994288BF11636268DF
:1015700022F003029542A2EB050301D80F2B04DCF5
:10158000304600F00FFA002434E7621943F00103FB
:1015900045F0010565603046BA60536000F002FA1C
:1015A0000834204603B0BDE8F08F142B69D9542BC2
:1015B00000F29C80280B00F16F0E4FEA4E036E3054
:1015C00072E600BF001C0020B82500205A0A042A39
:1015D0005ED9142A00F2B38002F15C0149005B324B
:1015E00007EB810C57F82110DFF8E081ACF1080C13
:1015F0008C4500F088804A6822F00302934202D2B0
:1016000089688C45F7D1D1F80CC07A68C4F80CC051
:10161000A160CCF80840CC608CE6631942F0010769
:1016200045F00105656030464B610B61C3F80CE085
:10163000C3F808E05F609A50083400F0B3F9D9E6C7
:101640004A6877E608F1010818F0030F0CF1080C5E
:101650007FF483AE30E0DC68A34208BF02303FF481
:1016600039AEB7E60B440C465A68C96854F8085FAF
:1016700042F001025A603046E9608D6000F092F954
:10168000B8E603F15C0E03F15B004FEA4E030BE694
:101690009A0902F1390149003832A1E7BC424B4BAB
:1016A0003FF404AF9C68626822F0030262E759F8D5
:1016B0000839994540F0838010F0030F00F1FF30A6
:1016C000F5D17B6823EA04037B6064009C423FF60B
:1016D000C1AE002C3FF4BEAE1C4240467FF439AE92
:1016E00064001C4200F10400FAD032E6B3F5AA7F90
:1016F00018D8E80B00F1780E4FEA4E037730D3E5A7
:101700004FF48051F0E60121D8F80430921001FA2C
:1017100002F21A43C8F80420614677E70123CBF8A8
:1017200004302DE740F25452934221D8A80C00F126
:101730007D0E4FEA4E037C30B6E51032A8E6542AFF
:1017400027D81A0B02F16F0149006E3248E7BC68D6
:10175000626822F003020DE7CAF30B03002B7FF44B
:10176000ADAE08EB0203BA6843F001035360F1E643
:10177000FE234FF07F0E7E2096E501234FF0000AF6
:10178000C4E604F10801304600F096FBDAF80410D4
:10179000E0E6B2F5AA7F05D8DA0B02F1780149003C
:1017A00077321DE740F254518A4205D89A0C02F173
:1017B0007D0149007C3213E7FE217E2210E77B6821
:1017C00083E7E808431C5B00FBE500BF001C00202A
:1017D000844641EA000313F003036DD1403A41D33C
:1017E00051F8043B40F8043B51F8043B40F8043BFB
:1017F00051F8043B40F8043B51F8043B40F8043BEB
:1018000051F8043B40F8043B51F8043B40F8043BDA
:1018100051F8043B40F8043B51F8043B40F8043BCA
:1018200051F8043B40F8043B51F8043B40F8043BBA
:1018300051F8043B40F8043B51F8043B40F8043BAA
:1018400051F8043B40F8043B51F8043B40F8043B9A
:1018500051F8043B40F8043B51F8043B40F8043B8A
:10186000403ABDD2303211D351F8043B40F8043B2A
:1018700051F8043B40F8043B51F8043B40F8043B6A
:1018800051F8043B40F8043B103AEDD20C3205D33A
:1018900051F8043B40F8043B043AF9D2043208D032
:1018A000D2071CBF11F8013B00F8013B01D30B88A4
:1018B00003806046704700BF082A13D38B078DD082
:1018C00010F003038AD0C3F10403D21ADB071CBF54
:1018D00011F8013B00F8013B80D331F8023B20F8BE
:1018E000023B7BE7043AD9D3013A11F8013B00F8F7
:1018F000013BF9D20B7803704B7843708B7883707F
:101900006046704770B4840746D0541E002A41D008
:10191000CDB2034602E0621EE4B3144603F8015B55
:101920009A07F8D1032C2ED9CDB245EA05250F2C04
:1019300045EA054519D903F110022646103E0F2E3F
:1019400042F8105C42F80C5C42F8085C42F8045C17
:1019500002F11002F2D8A4F1100222F00F0204F0FA
:101960000F041032032C13440DD91E462246043AAC
:10197000032A46F8045BFAD8221F22F0030204323D
:10198000134404F003042CB1C9B21C4403F8011B36
:10199000A342FBD170BC704714460346C2E700BFA8
:1019A000704700BF704700BF38B5D0F8DC420CB1BB
:1019B000002038BD80210546FFF754FCC5F8DC0245
:1019C00050B12346224601E0D5F8DC02C250043370
:1019D000802BF9D1002038BD4FF0FF3038BD00BF5B
:1019E0001F29F8B50AD8D0F8DC42074616460D463E
:1019F0004CB154F8250044F82560F8BD1622026069
:101A00004FF0FF30F8BDFFF7CFFF10B9D7F8DC4239
:101A1000EFE74FF0FF30F8BD1F2938B522D8D0F8D6
:101A2000DC2205460C469AB152F8213083B1012BD5
:101A30000CD0591C06D00025204642F82450984767
:101A4000284638BD16230360012038BD002038BD6C
:101A5000284600F069F8224601462846BDE838408D
:101A600000F04EB8162303604FF0FF3038BD00BFC2
:101A70001F2920D838B5D0F8DC3205460C46A3B172
:101A800053F8242003EB84036AB1511C09D0012AC6
:101A900005D0002520461D609047284638BD03200C
:101AA00038BD022038BD012038BDFFF77DFF28B9C1
:101AB000D5F8DC32E4E74FF0FF3070474FF0FF30ED
:101AC00038BD00BF024B01461868FFF7A5BF00BF35
:101AD00010200020024B0A4601461868FFF780BF1D
:101AE00010200020014B1868FFF75EBF1020002077
:101AF000024B01461868FFF7BBBF00BF1020002053
:101B000038B50B46074C054611461846002323609E
:101B10000AF0DEFE431C00D038BD2368002BFBD04A
:101B20002B6038BD4C3E00200AF0DABE00000000F9
:101B300000000000000000000000000000000000A5
:101B4000A2EB0300704700BF02780B78012A28BF80
:101B50009A42F5D16DE9044540EA0104CDE90267F6
:101B60006FF0000C4FEA447212B380EA010414F0E3
:101B7000070F6AD100F0070420F0070004F0030506
:101B800021F007014FEAC505F0E8042314F0040F23
:101B9000F1E804670CFA05F462EA040266EA040656
:101BA0000AD063EA0403624667EA0407664603E074
:101BB000F0E80423F1E8046782FA4CF582EA0604AF
:101BC000A4FA8CF46CBB83FA4CF583EA0705A5FAFA
:101BD0008CF595B950E9022351E9026782FA4CF578
:101BE00082EA0604A4FA8CF483FA4CF583EA07052A
:101BF000A5FA8CF52543DBD09CB92DBAB5FA85F44E
:101C000024F0070427FA04F1DDE9026723FA04F35C
:101C100003F0FF0001F0FF01FDE80445A0EB010027
:101C2000704724BAB4FA84F424F0070426FA04F1C5
:101C3000DDE9026722FA04F202F0FF0001F0FF0181
:101C4000FDE80445A0EB0100704714F0030F3CD100
:101C500010F0030428D150F8082B51F8083B82FA01
:101C60004CF582EA0305A5FA8CF55DB950F8042C11
:101C700051F8043C82FA4CF582EA0305A5FA8CF58A
:101C8000002DE8D02DBAB5FA85F424F0070423FA24
:101C900004F122FA04F202F0FF0001F0FF01FDE876
:101CA0000445A0EB010070474FEAC40420F0030094
:101CB00050F8082B21F0030151F8083B0CFA04F40A
:101CC00062EA040263EA0403C9E710F003041AD0CD
:101CD000A1EB040120F00300E40750F8042B06D028
:101CE0000FD28B785FFAA2F4E41A06D12BB1CB782D
:101CF0005FFAB2F4E41A00D11BB920465DF8104B2C
:101D0000704701F1040150F8042BCC0721F00301C6
:101D100051F8043B48D824D222F07F4482FA4CF593
:101D200094EA1325A5FA8CF50AD165B951F8043B5C
:101D300084EA0204B4EB036F0ED150F8042BEBE7F6
:101D40004FEA132355E035F07F454DD10878FDE883
:101D50000445C0F1000070474FEA126203F0FF0330
:101D600047E002EA1C4482FA4CF594EA1345A5FACE
:101D70008CF50AD165B951F8043B84EA0204B4EB4E
:101D8000034F0CD150F8042BEBE74FEA134330E03C
:101D900015EA1C4528D10B884FEA124229E04FEA88
:101DA000124203EA1C4324E002F0FF0482FA4CF5DD
:101DB00094EA1365A5FA8CF50AD165B951F8043B8C
:101DC00084EA0204B4EB032F09D150F8042BEBE7AB
:101DD0004FEA13630DE015F0FF0F05D10B684FEAD2
:101DE000122223F07F4304E04FF00000FDE8044599
:101DF000704712BA1BBA82FA4CF482EA0304A4FABE
:101E00008CF5B5FA85F402FA04F203FA04F34FEA0A
:101E10001260FDE80445A0EB13607047F8B5234F4E
:101E20000C460646FFF7BCFDBB685D6825F0030560
:101E3000291B01F6EF7121F47F6121F00F01A1F55B
:101E40008054B4F5805F07DB0021304606F080FD4A
:101E5000BB682B44984204D03046FFF7A3FD002016
:101E6000F8BD6142304606F073FD01300DD0104BD5
:101E7000BA6819682D1B45F001053046091B5560ED
:101E80001960FFF78FFD0120F8BD0021304606F0F4
:101E90005FFDBA68831A0F2BDEDD064C0449246807
:101EA00043F00103001B53600860D5E7001C0020CD
:101EB000BC25002008200020002945D02DE9F04154
:101EC0000D468046FFF76CFD55F8047C6A4927F003
:101ED0000103A5F10804E2188E685068B24220F0B0
:101EE000030062D0FE0750600BD455F8087CE41B59
:101EF00001F1080EA56875453B446FD0E768EF60B7
:101F0000BD6015186D68ED0742D543F001026260AF
:101F1000E350B3F5007F18D2DB085A1C4D6851F826
:101F20003270A76001209B1000FA03F301EBC2009E
:101F30001D430838E0604D6041F83240FC60404687
:101F4000BDE8F041FFF72EBD70475A0A042A53D866
:101F50009A0902F139077F0002F1380501EB870089
:101F600051F827204449083890424DD0516821F05B
:101F700003018B4202D292689042F7D1D068E060B0
:101F8000A2608460D4604046BDE8F041FFF70ABD1E
:101F900095683A4FBD4203443FD0D068E86043F0B3
:101FA000010285606260E350B3E7FF07034407D492
:101FB00055F8082CA41A1344A068E268C260906027
:101FC0002F4A126843F00100934260608C60B6D3E0
:101FD0002C4B40461968FFF721FFB0E711184968FC
:101FE000C90744D49168D268CA60034443F0010031
:101FF00091606060E350A2E7142A17D802F15C07F1
:102000007F0002F15B05A9E7AA104B68012505FADC
:1020100002F213434B600246B1E743F001024C6108
:102020000C61E560A5606260E35088E7542A06D839
:102030001A0B02F16F077F0002F16E058EE7B2F511
:10204000AA7F06D8DA0B02F178077F0002F1770544
:1020500084E740F25450824206D89A0C02F17D0780
:102060007F0002F17C0579E7FE277E2576E743F0C5
:1020700001026260E35062E7001C0020081C00209F
:102080000C200020B8250020032A70B426D940EA8D
:1020900001039B0711D004780D78AC4222D1024491
:1020A000431C05E013F8014B11F8015FAC4219D154
:1020B0009342F7D1002070BC70470C4603461E685F
:1020C0002568AE421846214603F1040304F10404D6
:1020D000E1D1043A032A18462146F0D8002ADAD181
:1020E0001046E8E7601B70BC704700BF70B411F089
:1020F000FF0434D085070FD00378002B5AD09C42C0
:102100002BD0431C05E013F8012B002A4FD094423A
:1021100023D09A071846F6D10E0206F47F462643CE
:10212000036846EA064601E050F8043F86EA0305E4
:10213000A5F10132A3F1013122EA050221EA0303EC
:10214000134313F0803FEFD0037823B932E010F847
:10215000013F002B2ED09C42F9D170BC7047840700
:102160000BD00378002BF8D0431C03E00278013336
:10217000002AF2D099071846F8D10268A2F101337B
:1021800023EA020313F0803F08D150F8042FA2F194
:10219000013323EA020313F0803FF6D00378002BCB
:1021A000DBD010F8013F002BFBD170BC704710460C
:1021B00070BC7047184670BC704700BF002A41D001
:1021C00040EA010313F00303F0B425D1032A23D915
:1021D00004680D68AC421FD1043A35D0A4F1013532
:1021E00025EA040414F0803F31D1071D0D1D0DE0D8
:1021F00057F8043B0E68A3F10134B34224EA030408
:102200000AD1043A20D014F0803F23D1032A294672
:10221000384605F10405EBD803780C789C4202F1AE
:10222000FF320CD182B114B916E06AB17BB110F85B
:10223000013F11F8014FA34202F1FF32F5D0181B04
:10224000F0BC7047104670471046F0BC7047184607
:10225000F0BC70470020F3E72046F1E740EA0103B5
:102260009B0770B42BD1032A29D90C46034621467B
:1022700054F8046BA6F1013525EA060515F0803FF8
:1022800006D1043A032A43F8046B2146EFD8A2B1E1
:102290000C781C70013A013301313CB16AB111F87C
:1022A000014B03F8014B013A002CF7D12AB11A4433
:1022B000002103F8011B9A42FBD170BC7047034612
:1022C000E5E700BF30B40478DCB10D789DB1A542DC
:1022D0000FD00A4601E0A3420BD012F8013F002BB9
:1022E000F9D110F8014F002CF0D11378002B08BF62
:1022F000002030BC704710F8014F0A46002CE5D191
:10230000F3E7204630BC704770B40478A4B10E786F
:1023100005464EB1B4420AD00A4601E0A34206D0B7
:1023200012F8013F002BF9D1281A70BC704715F83C
:10233000014F002CEDD1F7E72046F6E70000000042
:10234000704700BF00000000000000000000000017
:1023500090F8743003F06003202B1ED190F8753094
:10236000212B04D0222B12D0202B18D107E00D4BAB
:1023700083660723C3660023036701207047094B68
:1023800083660723C3660023036701207047002389
:102390008366C366036701207047002070470020F2
:1023A000704700BF40240020000000000000000033
:1023B0000020704700000000000000000000000046
:1023C0000020704700000000000000000000000036
:1023D000006040608260C160816141610A440261C5
:1023E000C361009B03627047000000000000000012
:1023F00010B40060406000248460C160816141616C
:102400000A440261C361019B03625DF8044B70479B
:10241000034601694269914202D1C26812B902E0E1
:10242000002200E001221046BAB19A6A92B1521A13
:10243000043A11D00A60DA68013ADA601969DA6997
:102440000A441A6199698A4201D35A6A1A610022C0
:102450009A6270470020704700207047000000001B
:1024600008B503691960C368013BC3600269C369A9
:10247000134403618269934201D3436A03610023D9
:102480008362036B03B1984708BD00BF00000000E2
:10249000436902699A4202D1C26812B902E000227D
:1024A00000E0012222B91B680B60406904307047CC
:1024B0000020704700000000000000000000000045
:1024C00010B4019C006040600172C460426102610E
:1024D000043303FB04218161C3610462426200236F
:1024E0008362C362029B0363039B43635DF8044BF7
:1024F000704700BF00000000000000000000000066
:1025000008B5C368013BC3604269C36913444361B2
:102510008269934201D3436A436100238362036B60
:1025200003B1984708BD00BF000000000000000094
:1025300003694269934202D1C26812B902E00022E3
:1025400000E001220AB9181D70470020704700BF43
:1025500030B4029C0060406001720021C1604261A1
:102560000261043304FB03258561C3610462426296
:102570008162C162039B0363049B436330BC704769
:1025800008B503F02DFA08BD0000000000000000AF
:1025900010B5044690F8763080F87E3004F0F8FEEE
:1025A00063681B6813B101212046984703232370F9
:1025B00010BD00BF0000000000000000000000008F
:1025C00010B582B0446BD4F88C341A6811780429A1
:1025D00015D1217A022912D11289197901238B4050
:1025E00013420CD101A904F14400FFF751FFD4F8C4
:1025F0008C44019B02462179206803F0B1FD02B0B2
:1026000010BD00BF0000000000000000000000003E
:1026100008B5026AC260426A4261026100228262B7
:10262000C2626FF0010108F06BFE08BD00000000FF
:1026300008B50022C260416A416101618262C262E2
:102640006FF0010108F05CFE08BD00BF0000000053
:10265000D0F88C241368197804291AD1017A022938
:1026600019D1117901228A405B8913409BB2A3B929
:1026700010B504460C30FFF75BFF024678B1D4F882
:102680008C044FF480734179006803F0C1FD002091
:1026900010BD0120704701207047012070470120C4
:1026A00010BD00BF0000000000000000000000009E
:1026B00008B5406BFFF7CCFF08BD00BF000000006D
:1026C00008B504F085FA08BD000000000000000015
:1026D00008B504F0E5FB08BD0000000000000000A4
:1026E00070B504460E461546202383F3118809E091
:1026F0002946204609F06CFA002803DA002383F308
:10270000118870BDA368002BF2D0A368013BA360C1
:1027100063695A1C62611E70626923699A4201D31F
:10272000E3686361E3690BB120469847002080F3BA
:10273000118870BD000000000000000000000000D3
:1027400008B53030FFF7CCFF08BD00BF0000000027
:1027500008B54FF0FF323030FFF7C2FF08BD00BFB1
:1027600038B504460D46202383F3118809E0294635
:10277000204609F02DFA002803DA002383F311889C
:1027800038BDA368002BF2D0A368013BA360A26907
:10279000531CA36115782269934201D3E368A361B6
:1027A000E3690BB120469847002383F3118828463C
:1027B00038BD00BF00000000000000000000000065
:1027C00008B50C30FFF7CCFF08BD00BF00000000CB
:1027D00008B54FF0FF310C30FFF7C2FF08BD00BF56
:1027E00038B504460D4607E0237A83B929462046CA
:1027F00009F0EEF900280CDBE368002BF4D0226925
:10280000131DA362E3691344E362002038BD6FF037
:10281000010038BD000000000000000000000000C2
:1028200038B504460D46202383F31188836A3BB9EB
:102830001146FFF7D5FF18B1002282F3118838BD89
:10284000A36A1D70A36A0133A362E26A934204D3B0
:10285000E16904392046FFF703FE002080F3118868
:1028600038BD00BF000000000000000000000000B4
:1028700008B54430FFF7D4FF08BD00BF00000000DA
:1028800008B54FF0FF324430FFF7CAFF08BD00BF64
:1028900038B504460D4607E0237A83B92946204619
:1028A00009F096F900280CDBE368002BF4D063698B
:1028B0001A1DA2621B681344E362002038BD6FF04A
:1028C000010038BD00000000000000000000000012
:1028D00038B50446202383F31188836A33B9FFF7A0
:1028E000D7FF18B1002282F3118838BDA36A13F80C
:1028F000015BA362E26A934202D32046FFF700FE27
:10290000002383F31188284638BD00BF0000000073
:1029100008B50C30FFF7DCFF08BD00BF0000000069
:1029200008B54FF0FF310C30FFF7D2FF08BD00BFF4
:1029300008B543698269934202D1826812B902E004
:10294000002200E0012282B98268013282605A1CB2
:1029500042611970426903699A4201D3C3684361B5
:10296000002108F0DDFC002008BD4FF0FF3008BD5D
:1029700008B5C3680133C3604269C3691344436146
:102980008269934201D3436A4361002108F0C8FC85
:1029900008BD00BF000000000000000000000000B3
:1029A00070B582B001F1090300EB83035E68AEB33A
:1029B0000D460446202383F311880821301D08F0BA
:1029C00087FBAB1C04EB83035B685B691B681BB173
:1029D00006F14400FFF7CCFF01A906F14400FFF720
:1029E00057FD024628B1019B2946204603F0B8FB5B
:1029F00011E0AB1C04EB83035A6853691B6853B1A5
:102A0000128A013A134206D1002304F174022946C6
:102A1000204603F0A5FB002383F3118802B070BDAC
:102A200008B503691960C3680133C3600269C369EB
:102A3000134403618269934201D3436A0361002115
:102A400008F06EFC08BD00BF0000000000000000A0
:102A500038B5113150F82140E4B1202383F31188B7
:102A6000D4F88C341A685B79023302EB83035B6819
:102A70009B695D6845B10421601808F029FB29466F
:102A800004F10C00FFF7CCFF2046FFF7E1FD002327
:102A900083F3118838BD00BF000000000000000073
:102AA0002DE9F04104460F4615468368934200D253
:102AB000856826696069361AB54207D22A463946C2
:102AC000FEF786FE63692B44636116E0B5420ED9BA
:102AD00032463946FEF77CFEC6EB05084246B91978
:102AE000E068FEF775FEE3684344636105E02A464B
:102AF0003946FEF76DFEE3686361A3685B1BA36064
:102B00002846BDE8F08100BF000000000000000082
:102B10002DE9F04707460D4692469946D0F81C80AD
:102B2000202383F31188144619E0224629463846AB
:102B3000FFF7B6FF064628B94946384609F048F877
:102B400068B10EE0B8F1000F01D03846C04700234D
:102B500083F31188A41B3544202383F31188002CB0
:102B6000E3D1002383F31188C4EB0A00BDE8F087AA
:102B700008B53030FFF7CCFF08BD00BF00000000F3
:102B800008B54FF0FF333030FFF7C2FF08BD00BF7C
:102B90002DE9F04104460F4615468368934200D262
:102BA00085682669A169761AB54207D22A46384651
:102BB000FEF70EFEA3692B44A36116E0B5420ED9C1
:102BC00032463846FEF704FEC6EB05084246E16889
:102BD000B819FEF7FDFDE3684344A36105E02A460A
:102BE0003846FEF7F5FDE368A361A3685B1BA360AD
:102BF0002846BDE8F08100BF000000000000000092
:102C00002DE9F04707460D4692469946D0F81C80BC
:102C1000202383F31188144619E0224629463846BA
:102C2000FFF7B6FF064628B94946384608F0D0FFF8
:102C300068B10EE0B8F1000F01D03846C04700235C
:102C400083F31188A41B3544202383F31188002CBF
:102C5000E3D1002383F31188C4EB0A00BDE8F087B9
:102C600008B50C30FFF7CCFF08BD00BF0000000026
:102C700008B54FF0FF330C30FFF7C2FF08BD00BFAF
:102C80002DE9F84304460F4690469946202383F3E6
:102C900011880026A36A43B949462046FFF7A0FDE4
:102CA00018B1002383F311883DE0E36AA06A1B1A80
:102CB000C6EB0805AB4200D81D46402D18D93B464F
:102CC00007F14002D3F800C0D3F804E09D68D9684A
:102CD000C0F800C0C0F804E08560C1601033103057
:102CE0009342EFD14037A36A4033A362403608E0F5
:102CF0002A463946FEF76CFD2F44A36A2B44A36293
:102D00002E44A26AE36A9A4204D3E1690439204658
:102D1000FFF7A6FB002383F31188464503D2202347
:102D200083F31188B6E73046BDE8F8830000000061
:102D300008B54430FFF7A4FF08BD00BF0000000045
:102D400008B54FF0FF334430FFF79AFF08BD00BFCE
:102D50002DE9F84304460F4690469946202383F315
:102D600011880026A36A43B949462046FFF790FD23
:102D700018B1002383F311883BE0E36AA16A5B1A70
:102D8000C6EB0805AB4200D81D46402D18D90B46AE
:102D90003A464031D3F800C0D3F804E09D68D868C3
:102DA000C2F800C0C2F804E09560D0601033103261
:102DB0008B42EFD14037A36A4033A362403608E02C
:102DC0002A463846FEF704FD2F44A36A2B44A3622B
:102DD0002E44A26AE36A9A4202D32046FFF790FB90
:102DE000002383F31188464503D2202383F31188FF
:102DF000B8E73046BDE8F88300000000000000009E
:102E000008B50C30FFF7A4FF08BD00BF00000000AC
:102E100008B54FF0FF330C30FFF79AFF08BD00BF35
:102E200008B504F08DF808BD0000000000000000A7
:102E300010B50446202383F311884160002305E088
:102E40009A1C04EB8202002151600133072BF7D951
:102E5000204603F095F802232370002383F31188A2
:102E600010BD00BF000000000000000000000000D6
:102E700001230370002343600AE003F10A0200EB20
:102E800082020021516003F1120240F82210013346
:102E9000062BF2D900230381438170470000000014
:102EA0000378407843EA0020704700BF000000002C
:102EB000F8B5044690F8743003F07F0390F875205D
:102EC00043EA022340F20232934200F0048114D814
:102ED000022B00F0B28004D833B3012B00F0A580A0
:102EE0000FE1B3F5817F00F0DF80B3F5407F35D08F
:102EF000B3F5807F40F005811FE040F2016293420C
:102F000006D8B3F5C06F47D2B3F5A06F37D0F8E05D
:102F1000B3F5106F61D040F60242934200F0858015
:102F2000B3F5006F51D0ECE000F17C03836602231F
:102F3000C366002303670120F8BD90F87630012BAB
:102F400040F0E180B0F87C3023F00203A0F87C3040
:102F500000238366C36603670120F8BD90F87630CE
:102F6000012B40F0D280B0F87C3043F00203A0F88F
:102F70007C3000238366C36603670120F8BDB0F888
:102F80007430B3F5A06F01D1FFF702FB0023A366F5
:102F9000E36623670120F8BD43685D6890F87760B9
:102FA00090F876707830FFF77BFF03463A4631465B
:102FB0002046A847002800F0AA804268A26603685D
:102FC000E366002323670120F8BD00F17F038366D9
:102FD0000120E06600232367F8BD0378042B11D19C
:102FE000202383F3118803F003FA002383F311886D
:102FF00084F87F300323237063681B6813B10321B7
:103000002046984794F876304BB184F87F300423FB
:10301000237063681B6813B1022120469847002380
:10302000A366E36623670120F8BD3E4BA366022337
:10303000E366002323670120F8BD90F8781011F0B3
:10304000800F18D001F00F0104F0C2F8012802D05F
:10305000022808D05DE0344BA3660223E366002318
:1030600023670120F8BD314BA3660223E3660023EA
:1030700023670120F8BD01F00F0104F0C1F8012819
:1030800002D0022808D046E0274BA3660223E3665D
:10309000002323670120F8BD244BA3660223E366C7
:1030A000002323670120F8BD90F87630002B34D13F
:1030B00090F8783013F00F0107D013F0800F02D092
:1030C00003F086FF01E003F093FF0023A366E366AD
:1030D00023670120F8BD90F8763003BB90F8783074
:1030E00013F00F0107D013F0800F02D003F090FF10
:1030F00001E003F09DFF0023A366E3662367012040
:10310000F8BD0020F8BD0020F8BD0020F8BD00206B
:10311000F8BD0020F8BD0020F8BD0020F8BD00205B
:10312000F8BD00BFF4E300087CE40008F8E3000801
:10313000D0F88C2413681978042920D1017A022947
:103140001DD1117901228A401B8913409BB2B3B96A
:1031500030B583B0044600F144052846FFF758F91E
:1031600058B101A92846FFF793F9D4F88C44019B84
:1031700002462179206802F0F3FF03B030BD7047AA
:1031800038B504460C30FFF753FA0025257504F1D5
:103190004400FFF73DFA84F84C500121201D07F050
:1031A00097FF2046FFF754FA38BD00BF000000002B
:1031B00010B504460121043007F08AFF002323756F
:1031C00084F84C3010BD00BF00000000000000007B
:1031D00038B5037D13B190F84C30A3B904460221F1
:1031E000043007F075FF012525756FF0010104F12A
:1031F0000C0008F085F884F84C506FF0010104F1E0
:10320000440008F07DF838BD000000000000000018
:103210000A68202383F311880B79093302EB8303B7
:1032200058604B79113342F823008B791BB1093375
:1032300002EB83025060C0F88C1402230372002357
:1032400083F31188704700BF0000000000000000F9
:1032500070B584B004460346104A43F8042B43601B
:103260000125057202900E4B0193022600964FF441
:10327000807300F17C0229460C30FFF769F9029453
:10328000084B019300964FF4807304F52172294690
:1032900004F14400FFF714F904B070BDCCE300085A
:1032A000B1260008C1250008000000000000000051
:1032B00038B504460D4643691BB90421084407F09C
:1032C00007FF294604F10C00FFF732FB002804DA5F
:1032D0004FF48061201D07F0FBFE38BD00000000A8
:1032E00010B50446202383F3118803F049FC022320
:1032F0002372002383F3118810BD00BF000000007B
:1033000030B583B00446154603460C4A43F8042BF7
:1033100043600123037200900B46102200F1540118
:103320000C30FFF765F800942B46102204F164017D
:1033300004F13000FFF74CF803B030BDA4E30008FF
:1033400038B5202383F3118801238B40C5682B43B4
:10335000C36003F0E5FC002383F3118838BD00BF90
:1033600010B50446202383F3118841604B688360C5
:1033700003F0DEFC0023E3600222227083F3118855
:1033800010BD00BF000000000000000000000000B1
:103390000123037000234360C3600374704700BFC0
:1033A000836942699A4202D1826812B902E000221E
:1033B00000E0012282B910B58268013282605A1C95
:1033C00082611C7803699A4201D3C368836100213A
:1033D00007F0A6FF204610BD4FF0FF30704700BF3A
:1033E00008B5202383F31188FFF73AF8002383F30D
:1033F000118808BD0000000000000000000000006F
:1034000008B5202383F31188FFF7EAF9002383F33B
:10341000118808BD0000000000000000000000004E
:10342000014B5863704700BF000C004000000000D3
:103430000022014BDA607047000C004000000000E1
:10344000034B586300221A610222DA60704700BF02
:10345000000C004000000000000000000000000020
:1034600008B502F00DFEFFF733F9FFF729F9FFF772
:1034700087F802F06DFEFFF7D3FC08BD00000000E6
:103480000B4A1068536803E050F8041B43F8041B10
:1034900091688B42F8D302E0002143F8041BD16805
:1034A0008B42F9D31032034B9A42EAD3704700BFE4
:1034B000FCE300087CE400080000000000000000BD
:1034C000FEE700BF00000000000000000000000058
:1034D000704700BF00000000000000000000000076
:1034E000704700BF00000000000000000000000066
:1034F00070B582B00122AF4B1A60202383F311888C
:10350000AD4A53681068181A1369C3EBA000AB49A1
:10351000042814BF0020012009F04AFE18B100233E
:1035200083F3118878E1002686F311880222A14BEB
:103530001A60202585F311889F4C204606F018FC60
:1035400086F3118885F3118863682068181A236947
:10355000C3EBA0009A49042814BF0020012009F001
:1035600027FE10B186F3118856E1002383F31188FA
:10357000202383F31188904B18699249B0FA80F0A8
:10358000400909F015FE18B1002383F3118843E1C7
:10359000002383F31188202383F31188864B186856
:1035A0009B688949984214BF0020012009F000FE61
:1035B00018B1002383F311882EE1002383F31188CF
:1035C000202383F311887C4B1868DB687F4998427D
:1035D00014BF0020012009F0EBFD18B1002383F394
:1035E000118819E1002484F31188734B1C750322A0
:1035F000704B1A6014E0202383F3118804F1420118
:103600006D4806F07DFB002383F311887049B0FA02
:1036100080F0400909F0CCFD002840F0FD80013425
:10362000022CE8D9202383F311884121624806F057
:103630002FFB002383F311886549B0FA80F040091D
:1036400009F0B6FD002840F0E7800422594B1A60CB
:10365000202383F31188584A536811685B1A126952
:10366000B2EBA30F5B490CBF0120002009F0A0FDC5
:1036700018B1002383F31188CEE0002383F311886F
:10368000202383F311884C4B18695349042814BF35
:103690000020012009F08CFD18B1002383F311886C
:1036A000BAE0002383F31188202383F31188424B6F
:1036B000D8689B684949984214BF0020012009F04E
:1036C00077FD18B1002383F31188A5E0002484F36B
:1036D00011880522374B1A6017E0202383F31188E5
:1036E00001A9354806F0A4FA002383F3118838496C
:1036F000B0FA80F0400909F05BFD002840F08C80B2
:103700009DF8040009F044F90134032CE5D934494B
:10371000344809F025FD00287ED10622254B1A6089
:103720004FF0FF3204F14201234806F011FB284913
:10373000B0FA80F0400909F03BFD00286CD14FF051
:10374000FF3201A91C4806F093FA2149B0FA80F033
:10375000400909F02DFD00285ED10722154B1A60A3
:10376000202383F31188144A53681068181A1369C8
:10377000C3EBA0001249042814BF0020012009F067
:1037800017FD18B1002383F3118845E0002383F36C
:103790001188202383F31188074B18690949B0FA6F
:1037A00080F0400909F004FDF0B1002383F3118893
:1037B00032E000BF043E00209424002094E400087E
:1037C000A0E40008ACE40008B8E40008DCE4000869
:1037D00000E5000818E5000824E5000830E50008C9
:1037E00048E500085CE50008002383F311880B4BD3
:1037F00018689B680A49984214BF0020012009F00C
:10380000D7FC48B9054B1868DB680649984214BFD5
:103810000020012009F0CCFC02B070BD94240020EF
:10382000B8E40008DCE4000800000000000000002C
:1038300008B5024806F0B4FA08BD00BF9424002081
:1038400008B5024806F0ACFA08BD00BF9424002079
:1038500008B504220249034806F0B2FA08BD00BFC9
:10386000C03100209424002000000000000000006F
:1038700008B504220249034806F0A2FA08BD00BFB9
:10388000C03100209424002000000000000000004F
:1038900010B582B001228E4B1A60202383F3118869
:1038A0008C4A53681068181A1369C3EBA0008A4940
:1038B000042814BF0020012009F07AFC18B100236D
:1038C00083F311889BE1002383F311880222804B4C
:1038D0001A60804C204606F063FA202383F3118897
:1038E00063682068181A2369C3EBA0007B49042889
:1038F00014BF0020012009F05BFC18B1002383F302
:1039000011887CE1002383F31188202383F311883D
:10391000704B18697249B0FA80F0400909F048FC10
:1039200018B1002383F3118869E1002383F3118820
:10393000202383F31188674B18689B686949984274
:1039400014BF0020012009F033FC18B1002383F3D9
:10395000118854E1002383F31188202383F3118815
:103960005C4B1868DB686049984214BF0020012056
:1039700009F01EFC18B1002383F311883FE10021F8
:1039800081F311880322524B1A604FF0FF325148E5
:1039900006F0DEF9554910F1020F14BF0020012096
:1039A00009F006FC002840F02A814FF0FF32002188
:1039B000484806F095F94D4910F1020F14BF002058
:1039C000012009F0F5FB002840F019814FF0FF328B
:1039D00001A9404806F04CF9444910F1020F14BF08
:1039E0000020012009F0E4FB002840F008810024B9
:1039F000384B1C750422364B1A6010E04FF0FF3232
:103A000004F14201334806F0A3F93949B0FA80F0D5
:103A1000400909F0CDFB002840F0F1800134022C70
:103A2000ECD94FF0FF3241212A4806F059F93049CC
:103A3000B0FA80F0400909F0BBFB002840F0DF80BD
:103A40000522234B1A60202383F31188214A5368EF
:103A500011685B1A1269B2EBA30F26490CBF012053
:103A6000002009F0A5FB18B1002383F31188C6E0FC
:103A7000002383F31188202383F31188154B1869E1
:103A80001D49042814BF0020012009F091FB18B142
:103A9000002383F31188B2E0002383F311882023ED
:103AA00083F311880B4BD8689B681449984214BF64
:103AB0000020012009F07CFB18B1002383F311885A
:103AC0009DE0002484F311880622014B1A602AE04D
:103AD000043E00209424002094E40008A0E40008A0
:103AE000ACE40008B8E40008DCE4000864E5000881
:103AF00000E5000818E5000824E5000830E50008A6
:103B00004FF0FF3201A93F4806F0B2F83E49B0FA43
:103B100080F0400909F04CFB002870D19DF80400AA
:103B200008F036FF0134032CEAD93849384809F047
:103B300017FB002863D10722364B1A604FF0FF3283
:103B400004F142012F4806F003F92F49B0FA80F042
:103B5000400909F02DFB002851D14FF0FF3201A997
:103B6000284806F085F82849B0FA80F0400909F0A5
:103B70001FFB002843D10822264B1A60202383F321
:103B80001188204A53681068181A1369C3EBA00003
:103B90002149042814BF0020012009F009FB18B1B5
:103BA000002383F311882AE0002383F31188202364
:103BB00083F31188134B18691849B0FA80F0400953
:103BC00009F0F6FA18B1002383F3118817E00023F7
:103BD00083F311880B4B18689B681149984214BFF6
:103BE0000020012009F0E4FA48B9064B1868DB68A8
:103BF0000C49984214BF0020012009F0D9FA02B004
:103C000010BD00BF9424002000E5000848E500082E
:103C10005CE50008043E0020A0E40008ACE40008D5
:103C2000B8E40008DCE40008000000000000000028
:103C300070B5334D01232B60324808F0C1FE782067
:103C400008F0DEFE304C204608F0CAFE02232B604E
:103C50002E4808F0B5FE442008F0D2FE204608F0B9
:103C6000BFFE03232B602A4808F0AAFE142008F0A8
:103C7000C7FE204608F0B4FE04262E60254808F052
:103C80009FFE0C2008F0BCFE204608F0A9FE05238C
:103C90002B60214808F094FE102008F0B1FE204669
:103CA00008F09EFE06232B601C4808F089FE0820C1
:103CB00008F0A6FE204608F093FE07232B60184864
:103CC00008F07EFE304608F09BFE204608F088FE95
:103CD00008232B60134808F073FE142008F090FEB0
:103CE000204608F07DFE09232B600F4808F068FE8F
:103CF000282008F085FE204608F072FE70BD00BF47
:103D0000043E002078E5000888E5000890E50008FA
:103D1000A0E50008B0E50008C0E50008D0E500080F
:103D2000E0E50008F0E5000800E6000800000000FB
:103D300070B50122194B1A6008F0F2FD0646002505
:103D4000174C204607F004FE204607F041FC2046B1
:103D500007F0FEFD204607F03BFC204607F0F8FD8B
:103D6000204607F035FC204607F0F2FD204607F01C
:103D70002FFC01350B4B5B6A9B1B42F20F72934287
:103D8000DED90222054B1A60074808F019FEA80088
:103D900008F036FE054808F023FE70BD043E002002
:103DA000002F0020000C004010E6000820E600086C
:103DB00008B5024807F044FA08BD00BF002F0020F4
:103DC00070B50122194B1A6008F0AAFD06460025BD
:103DD000174C204607F014FE204607F091FC2046C1
:103DE00007F00EFE204607F08BFC204607F008FE89
:103DF000204607F085FC204607F002FE204607F02B
:103E00007FFC01350B4B5B6A9B1B42F20F729342A6
:103E1000DED90222054B1A60074808F0D1FDA80040
:103E200008F0EEFD054808F0DBFD70BD043E002003
:103E3000102F0020000C004010E6000830E60008BB
:103E400008B502E0054807F0DBFD054B9B6993F8D8
:103E5000213013F0040FF5D008BD00BF102F002053
:103E6000EC3A00200000000000000000000000000C
:103E700008B50121014807F013FA08BD102F0020F2
:103E800008B50021014807F00BFA08BD102F0020EB
:103E90002DE9F04101221C4B1A6008F041FD8046DB
:103EA0000027202383F31188184E194D0023324632
:103EB0000121284602F03CFD164C0023324642F216
:103EC0001071204602F034FD284602F0F1FC204635
:103ED00002F0EEFC002383F3118801370E4B5B6A7E
:103EE000C8EB030342F20F729342DAD90222064B67
:103EF0001A600A4808F064FD780008F081FD08485F
:103F000008F06EFDBDE8F081043E00200146000887
:103F1000442F0020302F0020000C004010E6000845
:103F200040E6000800000000000000000000000063
:103F30002DE9F04385B0DFF8E4900123C9F80030A3
:103F400004AC002344F8043D08F0EAFCDFF8D0801C
:103F5000D8F818309A682C4F2C4E00943B46013A02
:103F60004FF4E871304607F003FC294D2860D8F87B
:103F700018309A6800943B46013A4FF4E871701883
:103F800007F0F6FB6860D8F818309A6800943B4652
:103F9000013A4FF4E87106F5687007F0E9FBA86094
:103FA000D8F818309A6800943B46013A4FF4E8710B
:103FB00006F5AE6007F0DCFBE860D8F818309A68C8
:103FC00000943B46013A4FF4E87106F5E86007F0CB
:103FD000CFFB28610223C9F8003042F2107007F0CD
:103FE00037FE08F0C5FC08F0ABFC0323C9F800302D
:103FF000084808F0E5FC039808F002FD064808F0C0
:10400000EFFC05B0BDE8F08331400008F02500204A
:104010001C2F002010E600084CE60008043E00209B
:10402000EC3A00200000000000000000000000004A
:1040300010B5044607F094F907F092F907F090F9EB
:1040400007F08EF9236804332360044B9B6993F8CF
:10405000213013F0040FEDD010BD00BFEC3A00206A
:104060002DE9F04383B0DFF80C910123C9F800304B
:10407000DFF81081D8F818309A68394F394E00248B
:1040800000943B4605324FF4E871304607F070FB70
:10409000354D2860D8F818309A6800943B460432B1
:1040A0004FF4E871701807F063FB6860D8F81830B7
:1040B0009A6800943B4603324FF4E87106F5687045
:1040C00007F056FBA860D8F818309A6800943B4671
:1040D00002324FF4E87106F5AE6007F049FBE86084
:1040E000D8F818309A6800943B4601324FF4E871D2
:1040F00006F5E86007F03CFB28610223C9F80030B0
:1041000008F00EFC05460021184807F091FA01342A
:10411000174B5B6A5B1B42F20F729342F3D9154D4A
:1041200003232B6008F024FC0021104807F080FADC
:1041300008F006FC04232B600F4808F041FC2046E1
:1041400008F05EFC0D4808F03BFC04EB4404600002
:1041500008F056FC0A4808F043FC03B0BDE8F083C1
:10416000413E0008F02500201C2F0020102F0020C9
:10417000000C0040043E002010E6000858E600084D
:104180004CE60008EC3A00200000000000000000AF
:1041900070B582B0154B9B699D6801350122144BA7
:1041A0001A6008F0BDFB0646002400230093114B63
:1041B0002A464FF4E871104807F0DAFA07F0F8F8E9
:1041C00001340E4B5B6A9B1B42F20F729342ECD997
:1041D0000222074B1A600A4808F0F2FB204608F05A
:1041E0000FFC084808F0FCFB02B070BDEC3A002060
:1041F000043E0020F1450008F0250020000C00409E
:1042000010E600086CE60008000000000000000056
:1042100070B582B0154B9B699D68013D0122144B1E
:104220001A6008F07DFB0646002400230093114B22
:104230002A464FF4E871104807F09AFA07F0F0FBAD
:1042400001340E4B5B6A9B1B42F20F729342ECD916
:104250000222074B1A600A4808F0B2FB204608F019
:10426000CFFB084808F0BCFB02B070BDEC3A002060
:10427000043E0020F1450008F0250020000C00401D
:1042800010E600086CE600080000000000000000D6
:1042900070B582B0284E01233360284B9B699A6821
:1042A00000250095264B01324FF4E871254807F0B0
:1042B0005FFA0446244B18600223336008F030FB99
:1042C0000646202383F311880021204607F0E0F9F9
:1042D0000021204607F0DCF90021204607F0D8F93C
:1042E0000021204607F0D4F9002383F31188043518
:1042F000164B5B6A9B1B42F20F729342E1D90E4E42
:1043000003233360202383F311884FF0FF312046CD
:1043100007F0BEF9002383F3118808F011FB042392
:1043200033600B4808F04CFB680008F069FB094853
:1043300008F056FB02B070BD043E0020EC3A0020AD
:1043400061430008F02500201C2F0020000C0040D5
:1043500010E600084CE60008000000000000000025
:1043600010B5074B9C69202383F31188032007F0C5
:1043700037FA636A002BF9D0002383F3118810BD4C
:10438000EC3A0020000000000000000000000000E7
:1043900010B505F095FD446A214605F081FD002C1D
:1043A000F7D110BD00000000000000000000000078
:1043B00070B5054608F0B4FA0646002401212846E7
:1043C00005F09EFD0134064B5B6A9B1B42F20F72A7
:1043D0009342F3D90021284605F092FD204670BD96
:1043E000000C004000000000000000000000000081
:1043F0002DE9F04383B0DFF8E8800123C8F80030EE
:10440000304FBB699A68304D002600962F4B013221
:104410004FF4E871284607F0ABF92D4C20600223D9
:10442000C8F80030BB699A68DFF8B89000964B4630
:10443000023A4FF4E871681807F09AF96060BB69B6
:104440009A6800964B46033A4FF4E87105F5687098
:1044500007F08EF9A060BB699A6800964B46043A53
:104460004FF4E87105F5AE6007F082F9E060BB69D2
:104470009A6800964B46053A4FF4E87105F5E860F6
:1044800007F076F920610323C8F800302068FFF7B1
:104490008FFF044608F054FA0423C8F800300D4892
:1044A00008F08EFA204608F0ABFA0B4808F088FABC
:1044B000600008F0A5FA094808F092FA03B0BDE8D8
:1044C000F08300BFEC3A0020F02500209143000863
:1044D0001C2F002010E6000878E600084CE60008D3
:1044E000043E0020F145000800000000000000002C
:1044F00030B583B0154C01232360154B9B699A6836
:1045000000230093134B01324FF4E871124807F077
:104510002FF9124B186002232360FFF749FF05466D
:1045200008F00EFA032323600D4808F049FA2846E4
:1045300008F066FA0B4808F043FA680008F060FAE1
:10454000094808F04DFA03B030BD00BF043E00201A
:10455000EC3A002091430008F02500201C2F002099
:1045600010E6000878E600084CE6000800000000AD
:1045700030B583B0154C01232360154B9B699A68B5
:1045800000230093134B013A4FF4E871124807F0EF
:10459000EFF8124B186002232360FFF709FF05466E
:1045A00008F0CEF9032323600D4808F009FA2846E5
:1045B00008F026FA0B4808F003FA680008F020FA21
:1045C000094808F00DFA03B030BD00BF043E0020DA
:1045D000EC3A002091430008F02500201C2F002019
:1045E00010E6000878E600084CE60008000000002D
:1045F00008B507F05DFA08BD0000000000000000EB
:10460000704700BF00000000000000000000000034
:1046100008B508F095F908BD000000000000000092
:104620002DE9F04182B00122464B1A60002406E0D9
:10463000454B53F82410454805F01AF90134032C72
:10464000F6D9DFF80081424B9B699E680323C8F8C6
:104650000030404F3D4D404B00933B46721E3F495A
:10466000284605F0C5FB3E4C20603E4B00933B4680
:10467000B21E3D49284605F0BBFB60603B4B0093F2
:104680003B46F21E3A49284605F0B2FBA060394B82
:1046900000933B46321F3849284605F0A9FBE060ED
:1046A000364B00933B46721F3549284605F0A0FB68
:1046B00020610423C8F8003023683BB163683BB134
:1046C000A3683BB1E3683BB9002006E0002004E0AA
:1046D000002002E0002000E001202A4908F068FDE7
:1046E00068BB1F4B18692849B0FA80F0400908F0F0
:1046F0005FFD20BB0522134B1A6008F021F9234906
:10470000234808F02DFDD0B906220E4B1A60002474
:104710000AE00E4805F0CCF81E49003018BF012011
:1047200008F046FD58B90134032CF2D9074805F0CA
:10473000BFF81949B0FA80F0400908F039FD02B01D
:10474000BDE8F081043E002080E40008582F0020DE
:10475000EC3A0020A14700088CE6000884E6000837
:104760001C2F002098E6000890E60008C40E0108FF
:104770009CE600088CFA0008A4E6000830E800086F
:10478000ACE60008B4E60008CCE60008E8E600085D
:104790005CE50008FCE600080CE7000800000000EB
:1047A00008B5007808F0F4F808BD00BF000000006C
:1047B00008B5432008F0ECF808BD00BF0000000079
:1047C00008B5422008F0E4F808BD00BF0000000072
:1047D00008B5412008F0DCF808BD00BF000000006B
:1047E00008B5002304224FF4E871024805F0A0F850
:1047F00008BD00BF582F002000000000000000008E
:1048000030B587B0454B9B699D680222444B1A60C6
:1048100004AA05A9434805F0ABF80446424901281B
:1048200014BF0020012008F0C3FC002874D103222B
:104830003B4B1A603D4B01933D4B00936B1E3D4A31
:104840004FF4E871374805F003FB3B4B18603B49D8
:10485000003018BF012008F0ABFC00285CD1042216
:104860002F4B1A60364B0193314B0093AB1E354AE8
:104870004FF4E8712B4805F0EBFA2F4B58602F49A5
:10488000003018BF012008F093FC002844D1052215
:10489000234B1A602C4B0193254B0093EB1E2B4AA4
:1048A0004FF000411F4805F0D3FA234B9860284988
:1048B000B0FA80F0400908F07BFC00282CD10622D9
:1048C000174B1A6008F03CF82249234808F048FCCE
:1048D00010BB0722124B1A6002AA03A9114805F067
:1048E00047F81E49844214BF0020012008F060FCF4
:1048F00090B91B49039B0598984214BF00200120E2
:1049000008F056FC40B91749029B0498984214BF1E
:104910000020012008F04CFC07B030BDEC3A00202C
:10492000043E0020682F002020E700088CE60008E5
:10493000A147000884E600081C2F0020B4E6000808
:1049400098E6000890E60008C40E01089CE60008FE
:10495000CCE60008E8E6000830E7000834E7000885
:104960004CE7000868E700080000000000000000B5
:1049700008B54FF411620249024805F019F908BD63
:10498000F0250020682F002000000000000000003B
:1049900008B54FF0FF3006F0C3FB024B1B60024B23
:1049A0001B6008BD68240020742400200000000063
:1049B00008B54FF0FF3006F0B3FB08BD0000000063
:1049C00008B54FF0FF3006F0ABFB08BD000000005B
:1049D00008B54FF0FF3006F0A3FB08BD0000000053
:1049E00008B54FF0FF3006F09BFB08BD000000004B
:1049F00008B54FF0FF3006F093FB08BD0000000043
:104A000070B58CB02E4C012222604FF0FF3307A905
:104A10002C4806F0ADFB4FF0FF33042202A92A48D0
:104A200006F0A6FB0223236007F07AFF054600F597
:104A3000FA76264B9B699A68254B0093254B013AE1
:104A40004FF4E871244806F093FE244B18600323CA
:104A50002360052005F0F4FA214A05F5027130467D
:104A600008F06EFC48BB4FF0FF3006F059FB1D49C3
:104A7000B0FA80F0400908F09BFBF0B907F060FF46
:104A8000042222600F4C07A9204606F059FB02A918
:104A90000D4806F055FB20681349A04214BF0020C2
:104AA000012008F085FB40B9074B18680E49984271
:104AB00014BF0020012008F07BFB0CB070BD00BFCC
:104AC000043E00206824002074240020EC3A0020DA
:104AD0008CE60008C14B0008F02500201C2F0020A8
:104AE00088E700089CE70008A8E70008000000002D
:104AF00030B58BB02D4C246002252D4B1D604FF03E
:104B0000FF33012205A9204606F032FB4FF0FF33A8
:104B10002A466946204606F02BFB202383F31188A2
:104B200020682449001B18BF012008F041FB18B180
:104B3000002383F3118837E0002383F311880322D5
:104B40001B4B1A60194C05A9204606F0F9FA2023E0
:104B500083F3118820681749001B18BF012008F053
:104B600027FB18B1002383F311881DE0002383F392
:104B7000118804220E4B1A600C4C6946204606F040
:104B8000DFFA202383F3118820680B49A04214BF69
:104B90000020012008F00CFB18B1002383F31188DA
:104BA00002E0002383F311880BB030BD682400209D
:104BB000043E0020B8E70008A8E700080000000055
:104BC00008B50021054805F0B3FA4FF4FA7007F074
:104BD0003FF80021024805F0ABFA08BD6824002028
:104BE000742400200000000000000000000000000D
:104BF00008B50122284B1A6000214FF0FF3005F064
:104C0000EFF92649B0FA80F0400908F0D1FA0028FF
:104C100040D100214FF0FF3005F0BAF91F49B0FA3A
:104C200080F0400908F0C4FAA0BB00214FF0FF302B
:104C300005F086F91949B0FA80F0400908F0B8FA91
:104C400040BB0222144B1A604FF4FA714FF0FF3050
:104C500005F0C6F91149B0FA80F0400908F0A8FA49
:104C6000C0B94FF4FA714FF0FF3005F091F90B49DC
:104C7000B0FA80F0400908F09BFA58B94FF4FA7185
:104C80004FF0FF3005F05CF90449B0FA80F04009BC
:104C900008F08EFA08BD00BF043E0020C4E70008FB
:104CA00070B582B02D4C01232360052006F028FA50
:104CB00002232360052005F0C3F92949052814BF04
:104CC0000020012008F074FA002845D14FF0FF3091
:104CD00006F026FA2349B0FA80F0400908F068FA95
:104CE000002839D103232360042006F009FA0423A5
:104CF000236007F015FE054600F5FA761A4B9B690E
:104D00009A680093194B013A4FF4E871184806F07D
:104D10002FFD184B18600520206005F091F904461E
:104D2000154A05F50271304608F00AFBA0B913498F
:104D3000052C14BF0020012008F03AFA60B94FF0AA
:104D4000FF3006F0EDF90749B0FA80F0400908F0AD
:104D50002FFA08B907F0F4FD02B070BD043E002040
:104D6000D4E700089CE70008EC3A0020814D0008D9
:104D7000F02500201C2F002088E70008ECE7000841
:104D800010B504464FF4FA7006F062FF0121204688
:104D900006F0D6FB10BD00BF0000000000000000C0
:104DA00070B582B02D4C01232360052006F0A8F9D0
:104DB000022323604FF0FF3005F062F928490528EF
:104DC00014BF0020012008F0F3F9002843D14FF070
:104DD000FF3006F0A5F92349B0FA80F0400908F049
:104DE000E7F9002837D125460323236007F098FD13
:104DF000044600F5FA761C4B9B699A6800931B4B9E
:104E0000013A4FF4E8711A4806F0B2FC194B1860E9
:104E100004232B604FF0FF3005F032F90546164AA7
:104E200004F50271304608F08BFAA0B91349012D40
:104E300014BF0020012008F0BBF960B94FF0FF302B
:104E400006F06EF90749B0FA80F0400908F0B0F9B1
:104E500008B907F075FD02B070BD00BF043E002028
:104E6000D4E700089CE70008EC3A0020814D0008D8
:104E7000F02500201C2F002088E7000800E800082B
:104E800070B582B03A4C01232360072006F038F950
:104E9000022323604FF0FF3005F012F93549012855
:104EA00014BF0020012008F083F900285DD14FF0E5
:104EB000FF3005F005F92F49022814BF002001201A
:104EC00008F076F9002850D14FF0FF3005F0F8F8DF
:104ED0002849042814BF0020012008F069F900289F
:104EE00043D14FF0FF3006F01BF92349B0FA80F0B0
:104EF000400908F05DF9002837D1254603232360D7
:104F000007F00EFD044600F5FA761C4B9B699A6883
:104F100000931B4B013A4FF4E8711A4806F028FC45
:104F2000194B186004232B604FF0FF3005F0C8F8D0
:104F30000546164A04F50271304608F001FAA0B998
:104F40001349012D14BF0020012008F031F960B988
:104F50004FF0FF3006F0E4F80749B0FA80F040095E
:104F600008F026F908B907F0EBFC02B070BD00BFED
:104F7000043E002014E800089CE70008EC3A0020FA
:104F8000814D0008F02500201C2F002088E7000834
:104F900000E8000800000000000000000000000021
:104FA00008B50122054B1A600721054805F0A8F84D
:104FB0000449054808F0D4F808BD00BF043E0020AD
:104FC00084E80008E8E6000828E80008000000007F
:104FD00030B583B0134C01232360134B9B699A684F
:104FE0000093124B01324FF4E871114806F0C0FBF8
:104FF000104B186002232360002409E004F060FFD6
:10500000456A294604F04CFFE8B207F0C1FC0134C0
:10501000032CF3D907F094FC0749084808F0A0F8DE
:1050200003B030BD043E0020EC3A0020415000089F
:10503000F02500201C2F0020E8E600085CE50008B1
:1050400010B50446412104F05BFF4221204604F0E4
:1050500057FF4321204604F053FF4421204604F02B
:105060004FFF10BD00000000000000000000000025
:10507000F0B583B01F4C204B9B699F6802232360CF
:105080001E4E1F4B00931F4B7A1C4FF4E8713046A5
:1050900006F06EFB1C4D2860032323601B4B00931E
:1050A0001B4BBA1C4FF4E871701806F061FB686086
:1050B00004232360174B0093174BFA1C4FF4E8713D
:1050C00006F5687006F054FBA86005232360134DB5
:1050D000284606F0FDFA06232360284606F0F8FA73
:1050E0000723236007F02CFC0D490E4808F038F820
:1050F00003B0F0BD043E0020EC3A0020F025002073
:105100008CE60008717800081C2F0020C40E0108EE
:10511000B178000898E60008317800086C24002077
:10512000E8E6000828E80008000000000000000091
:1051300008B5024806F084F808BD00BF58240020D6
:1051400008B5034806F07CF8024806F079F808BD77
:105150005824002048240020000000000000000027
:1051600008B5054806F02CF8044806F069F804482C
:1051700006F066F808BD00BF6C240020582400200B
:105180004824002000000000000000000000000093
:1051900008B5034806F014F8024806F051F808BDB7
:1051A0006C240020582400200000000000000000B3
:1051B00008B5034806F004F8024806F041F808BDB7
:1051C0006C24002058240020000000000000000093
:1051D0002DE9F04182B0DFF8CC800123C8F800301F
:1051E000244B9B699E68244F244D254B00933B46DE
:1051F000721C4FF4E871284606F0BAFA214C206080
:10520000214B00933B46B21C4FF4E871681806F03E
:10521000AFFA60601D4B00933B46F21C4FF4E871FF
:1052200005F5687006F0A4FAA060194B00933B46A0
:10523000321D4FF4E87105F5AE6006F099FAE060B2
:10524000144B00933B46721D4FF4E87105F5E8607E
:1052500006F08EFA20610223C8F800300E4806F0EE
:105260007FF907F06DFB0D490D4807F079FF02B09B
:10527000BDE8F081EC3A0020B1780008F02500206C
:1052800030E800081C2F00208CFA0008C40E01082A
:1052900098E600088CE600086C240020E8E6000888
:1052A0002CE80008043E0020000000000000000080
:1052B0002DE9F04182B0DFF8F8800123C8F8003012
:1052C0002F4B9B699E682F4F2F4D304B00933B46D1
:1052D000721C4FF4E871284606F04AFA2C4C206004
:1052E0002C4B00933B46B21C4FF4E871681806F053
:1052F0003FFA6060284B00933B46F21C4FF4E87184
:1053000005F5687006F034FAA060244B00933B4624
:10531000321D4FF4E87105F5AE6006F029FAE06041
:105320001F4B00933B46721D4FF4E87105F5E86092
:1053300006F01EFA20610223C8F80030202383F310
:105340001188184C204605F02BFF204605F028FF59
:10535000204605F025FF204605F022FF204605F0F7
:105360001FFF06F0DDF8002383F3118807F0E8FA49
:105370000D490E4807F0F4FE02B0BDE8F08100BF11
:10538000EC3A0020B1780008F025002030E8000851
:105390001C2F00208CFA0008C40E010898E60008B3
:1053A0008CE600086C240020E8E600082CE80008E1
:1053B000043E00200000000000000000000000008B
:1053C00038B53D4B9B699C6802223C4B1A603C48B7
:1053D00005F026FF3B4907F0EBFE00286AD10322C7
:1053E000364B1A60364805F01BFF80F00100364945
:1053F000C0B207F0DDFE00285CD104222F4B1A60FA
:105400002F4D284606F0E4F8A8683049B0FA80F03D
:10541000400907F0CDFE00284CD128682C49A8424D
:1054200014BF0020012007F0C3FE002842D105224E
:10543000224B1A60204B9B6998682649844214BF0E
:105440000020012007F0B4FE002833D106221B4BB8
:105450001A60284605F0E4FE1A4907F0A9FE48BB89
:10546000284605F0DDFE80F001001749C0B207F0C4
:105470009FFEF8B906F084F8A8681449B0FA80F0E5
:10548000400907F095FEA8B928681149A84214BF41
:105490000020012007F08CFE60B90722074B1A603C
:1054A000054B9B6998680B49844214BF002001207A
:1054B00007F07EFE38BD00BFEC3A0020043E00201D
:1054C0005824002034E8000844E8000850E80008A8
:1054D0005CE800086CE80008000000000000000024
:1054E0002DE9F04782B0414E414DAB699C6804F113
:1054F000010904F1020A02233360DFF818813D4BF1
:1055000000933D4B4A464FF4E871404606F030F9AF
:105510003A4F38603A4B00933A4B52464FF4E87199
:1055200008EB010006F024F9786003233360364865
:1055300006F00EFAAB6998683449844214BF002023
:10554000012007F035FE00284DD1042232604FF4CF
:105550007A7006F07DFBAB6998682C49814514BFD1
:105560000020012007F024FE00283CD105223260F3
:10557000274806F0EDF9AB6998682449814514BFC6
:105580000020012007F014FE00282CD106223260F2
:105590004FF47A7006F05CFBAB6998681B49824552
:1055A00014BF0020012007F003FEE0B9072232609B
:1055B000174806F00DF8AB6998681449814514BF87
:1055C0000020012007F0F4FD68B9082232600E487F
:1055D00005F0FEFFAB6998680C49844214BF0020B7
:1055E000012007F0E5FD02B0BDE8F087043E002091
:1055F000EC3A00208CE60008117900081C2F0020EE
:1056000098E60008E1780008582400206CE80008BB
:1056100048240020F02500200000000000000000C9
:1056200070B50546D0F88460002421E0224604F1DC
:1056300058035B01F35803F44023B3F5802F15D1D1
:1056400004F158035B01F358002B0FDA012303FA2E
:1056500004F16B8923EA01036B81023205EB8202BC
:105660005368DB6813B12146284698470134E4B2F9
:10567000D5F888309B689C42D8D970BD00000000E6
:1056800030B40024254609E014F0030F00D105686A
:105690009C4202D20D702D0A013101349442F3D3A1
:1056A00030BC704700000000000000000000000057
:1056B00070B5D0F88460336AC3F30A1503F00F04A1
:1056C00003F4F013B3F5802F0ED0B3F5402F23D1A0
:1056D000023400EB8404616808232A46096A06F54F
:1056E0008050FFF7CDFF70BD023400EB8404636887
:1056F00099690A684B68D31A2A46896806F580506A
:10570000FFF7BEFF63689A6993682B4493606368F0
:105710009B695A6815445D6070BD00BF00000000C1
:105720000B680360042A02D9043A0431F8E7704791
:10573000F8B506460D46AB1C06EB83035A68516963
:1057400048680B6898420BD3D6F88420D2F83438D6
:10575000012000FA05F423EA0404C2F83448F8BD35
:105760001B1A148AA34200D81C46D6F8847007EB93
:105770004513D3F818399BB2B4EB830F14D8681CC7
:105780002246896807EB0030FFF7CAFFAB1C06EB27
:1057900083035A6851698A6822448A605B685B693E
:1057A0005A6814445C60C6E70020F8BD00000000A1
:1057B0000B4A136843F4807313600A4B1B6F03F4A6
:1057C0004073B3F5007F05D0064B4FF480321A6763
:1057D00000221A67024A536823F40073536070472B
:1057E000007000400038024000000000000000008F
:1057F00008B590F88030037043681B680BB1052131
:10580000984708BD000000000000000000000000F4
:1058100008B5037880F880300523037043681B685F
:105820000BB10421984708BD0000000000000000F3
:10583000F8B506460D46D0F8847007EB4113D3F84F
:10584000084BC3F8084B14F0080F0AD0D7F81438E7
:1058500013F0080F05D08B1C00EB83035B685B68BB
:10586000984714F0010F2FD0D7F8143813F0010F18
:105870002AD0AB1C06EB830359688B69C5B95C68F9
:105880004A8AB4FBF2F002FB10428AB91868DA685F
:1058900090420DD2121A1A6000245C60202383F318
:1058A00011882946304601F033FC84F31188F8BD95
:1058B000012303FA05F2738923EA02037381CB689B
:1058C00013B1294630469847F8BD00BF00000000DC
:1058D0002DE9F04107460D46D0F8846006EB4113F0
:1058E000D3F80849C3F8084914F0010F29D0D6F8B5
:1058F000103813F0010F24D08B1C00EB8303596880
:105900004B691868DA6890420FD2121A1A604FF089
:105910000008C3F80480202383F311882946384601
:1059200001F096FB88F311880BE0012303FA05F2DE
:105930003B8923EA02033B818B6813B12946384631
:10594000984714F0800F09D0D6F834280123AB40D3
:105950001A4203D029463846FFF7EAFEBDE8F08137
:1059600010B5D0F884402369002BFCDA01232361B1
:105970000C2001F025F8236913F0010FFBD1122050
:1059800001F01EF82369002BFCDA10BD00000000B6
:1059900010B50446022303700023A0F87C3080F881
:1059A0007E3080F87F300381438105E09A1C04EB50
:1059B0008202002151600133072BF7D9002384F8BC
:1059C0006430204601F0F4FC63681B6813B10021C9
:1059D0002046984710BD00BF0000000000000000F6
:1059E00010B5054C2046FDF743FA044BC4F884304B
:1059F000034BC4F8883010BDCC35002000000440B3
:105A000090E8000800000000000000000000000016
:105A1000D0F88C301944C0F88C101846704700BF7D
:105A2000D0F888301B68C0F88C3070470000000048
:105A300008B5D0F88420890141F020011161136973
:105A400013F0200FFBD1122000F0BAFF08BD00BFF9
:105A5000F8B50746D0F88450002435E0264604F116
:105A600048035B01EB5803F44023B3F5802F29D1A1
:105A700004F148035B01EB58002B23DA04F14803DF
:105A80005B01EA5842F09042EA5006F148035B019C
:105A9000EB58002BF9DB3846FFF7CAFF012303FA66
:105AA00006F23B8923EA02033B81023607EB8606B6
:105AB00073689B6813B1214638469847214638469B
:105AC000FFF736FE0134E4B22146D7F888309B68F0
:105AD0009C42C3D9F8BD00BF0000000000000000D8
:105AE00070B50646D0F884506C69AB691C406C6197
